:100000000C9434000C943E000C943E000C943E0082
:100010000C943E000C943E000C943E000C943E0068
:100020000C943E000C943E000C943E000C943E0058
:100030000C943E000C943E000C943E000C943E0048
:100040000C943E000C943E000C943E000C943E0038
:100050000C943E000C943E000C943E000C943E0028
:100060000C943E000C943E0011241FBECFEFD8E04C
:10007000DEBFCDBF0E9440000C9480000C940000B5
:100080001092C50080E18093C40086E08093C20096
:100090008091C10088608093C1008091C10080611F
:1000A0008093C1008091C00087FFFCCFC091C60043
:1000B0000C2F10E0C8010E946D00892B21F0C801AF
:1000C0000E947500C82F8091C00085FFFCCFC093AF
:1000D000C600E8CF85FD0C947D00806291110C94E0
:1000E0007D0081568A51D8F708959111089581565F
:1000F0008A5108F4805285580895992788270895D1
:04010000F894FFCFA1
:00000001FF
