:100000000C9434000C9449000C9449000C94490061
:100010000C9449000C9449000C9449000C9449003C
:100020000C9449000C944B000C9449000C9449002A
:100030000C9449000C9449000C9449000C9449001C
:100040000C9449000C9449000C9449000C9449000C
:100050000C9449000C9449000C9449000C944900FC
:100060000C9449000C94490011241FBECFEFD8E036
:10007000DEBFCDBF11E0A0E0B1E0E6E6F1E002C0F6
:1000800005900D92A033B107D9F70E9463000C943C
:10009000B1000C9400001F920F920FB60F92112422
:1000A0008F93EF93FF9383B7816083BFE0E7F0E026
:1000B000808181608083FF91EF918F910F900FBEBF
:1000C0000F901F901895CF93DF93CDB7DEB7AF9702
:1000D0000FB6F894DEBF0FBECDBF8FE2E0E0F1E0D7
:1000E000DE01119601900D928A95E1F71092C500FC
:1000F00087E68093C40086E08093C2008091C100AF
:1001000088608093C1008091C10080618093C100AC
:1001100078948091B10085608093B10083B7866048
:1001200083BF8091C00087FFFCCF8091C6008F7D88
:100130008335B9F783B7816083BF80917000816098
:10014000809370001092B2008895FE0131968191E3
:10015000882339F39091C00095FFFCCF8093C600AF
:06016000F6CFF894FFCF7A
:10016600456C2065717569706F20656E7472C3B3D6
:1001760020792073616C69C3B3206465206C6120AB
:1001860073757370656E7369C3B36E200A0D0000D4
:00000001FF
