:100000000C9434000C943E000C943E000C943E0082
:100010000C943E000C943E000C943E000C943E0068
:100020000C943E000C943E000C943E000C943E0058
:100030000C943E000C943E000C943E000C943E0048
:100040000C943E000C943E000C943E000C943E0038
:100050000C943E000C943E000C943E000C943E0028
:100060000C943E000C943E0011241FBECFEFD8E04C
:10007000DEBFCDBF0E9440000C945C000C940000D9
:100080001092C50087E68093C40086E08093C2008A
:100090008091C10088608093C100249A8CB58064EF
:1000A0008CBD0DB407FEFDCF8EB59091C00095FFBD
:0C00B000FCCF8093C600F5CFF894FFCF82
:00000001FF
